{
  "_format": "hh-sol-artifact-1",
  "contractName": "ProofOfEngagement",
  "sourceName": "contracts/ProofOfEngagement.sol",
  "abi": [
    {
      "inputs": [
        {
          "internalType": "string",
          "name": "_name",
          "type": "string"
        },
        {
          "internalType": "string",
          "name": "_symbol",
          "type": "string"
        },
        {
          "internalType": "string",
          "name": "_tag",
          "type": "string"
        }
      ],
      "stateMutability": "nonpayable",
      "type": "constructor"
    },
    {
      "anonymous": false,
      "inputs": [
        {
          "indexed": true,
          "internalType": "address",
          "name": "owner",
          "type": "address"
        },
        {
          "indexed": true,
          "internalType": "address",
          "name": "approved",
          "type": "address"
        },
        {
          "indexed": true,
          "internalType": "uint256",
          "name": "tokenId",
          "type": "uint256"
        }
      ],
      "name": "Approval",
      "type": "event"
    },
    {
      "anonymous": false,
      "inputs": [
        {
          "indexed": true,
          "internalType": "address",
          "name": "owner",
          "type": "address"
        },
        {
          "indexed": true,
          "internalType": "address",
          "name": "operator",
          "type": "address"
        },
        {
          "indexed": false,
          "internalType": "bool",
          "name": "approved",
          "type": "bool"
        }
      ],
      "name": "ApprovalForAll",
      "type": "event"
    },
    {
      "anonymous": false,
      "inputs": [
        {
          "indexed": true,
          "internalType": "address",
          "name": "previousOwner",
          "type": "address"
        },
        {
          "indexed": true,
          "internalType": "address",
          "name": "newOwner",
          "type": "address"
        }
      ],
      "name": "OwnershipTransferred",
      "type": "event"
    },
    {
      "anonymous": false,
      "inputs": [
        {
          "indexed": true,
          "internalType": "string",
          "name": "uri",
          "type": "string"
        }
      ],
      "name": "SetBaseURI",
      "type": "event"
    },
    {
      "anonymous": false,
      "inputs": [
        {
          "indexed": true,
          "internalType": "string",
          "name": "uri",
          "type": "string"
        }
      ],
      "name": "SetCollectionURI",
      "type": "event"
    },
    {
      "anonymous": false,
      "inputs": [
        {
          "indexed": true,
          "internalType": "address",
          "name": "from",
          "type": "address"
        },
        {
          "indexed": true,
          "internalType": "address",
          "name": "to",
          "type": "address"
        },
        {
          "indexed": true,
          "internalType": "uint256",
          "name": "tokenId",
          "type": "uint256"
        }
      ],
      "name": "Transfer",
      "type": "event"
    },
    {
      "anonymous": false,
      "inputs": [
        {
          "indexed": true,
          "internalType": "address",
          "name": "dest",
          "type": "address"
        }
      ],
      "name": "Withdraw",
      "type": "event"
    },
    {
      "anonymous": false,
      "inputs": [
        {
          "indexed": true,
          "internalType": "address",
          "name": "tokenAddress",
          "type": "address"
        },
        {
          "indexed": true,
          "internalType": "address",
          "name": "dest",
          "type": "address"
        }
      ],
      "name": "WithdrawToken",
      "type": "event"
    },
    {
      "inputs": [
        {
          "internalType": "address",
          "name": "to",
          "type": "address"
        },
        {
          "internalType": "uint256",
          "name": "tokenId",
          "type": "uint256"
        }
      ],
      "name": "approve",
      "outputs": [],
      "stateMutability": "nonpayable",
      "type": "function"
    },
    {
      "inputs": [
        {
          "internalType": "address",
          "name": "owner",
          "type": "address"
        }
      ],
      "name": "balanceOf",
      "outputs": [
        {
          "internalType": "uint256",
          "name": "",
          "type": "uint256"
        }
      ],
      "stateMutability": "view",
      "type": "function"
    },
    {
      "inputs": [],
      "name": "contractURI",
      "outputs": [
        {
          "internalType": "string",
          "name": "",
          "type": "string"
        }
      ],
      "stateMutability": "view",
      "type": "function"
    },
    {
      "inputs": [
        {
          "internalType": "uint256",
          "name": "tokenId",
          "type": "uint256"
        }
      ],
      "name": "getApproved",
      "outputs": [
        {
          "internalType": "address",
          "name": "",
          "type": "address"
        }
      ],
      "stateMutability": "view",
      "type": "function"
    },
    {
      "inputs": [],
      "name": "getBaseURI",
      "outputs": [
        {
          "internalType": "string",
          "name": "",
          "type": "string"
        }
      ],
      "stateMutability": "view",
      "type": "function"
    },
    {
      "inputs": [],
      "name": "getLastTokenId",
      "outputs": [
        {
          "internalType": "uint256",
          "name": "",
          "type": "uint256"
        }
      ],
      "stateMutability": "view",
      "type": "function"
    },
    {
      "inputs": [
        {
          "internalType": "address",
          "name": "owner",
          "type": "address"
        },
        {
          "internalType": "address",
          "name": "operator",
          "type": "address"
        }
      ],
      "name": "isApprovedForAll",
      "outputs": [
        {
          "internalType": "bool",
          "name": "",
          "type": "bool"
        }
      ],
      "stateMutability": "view",
      "type": "function"
    },
    {
      "inputs": [],
      "name": "name",
      "outputs": [
        {
          "internalType": "string",
          "name": "",
          "type": "string"
        }
      ],
      "stateMutability": "view",
      "type": "function"
    },
    {
      "inputs": [],
      "name": "owner",
      "outputs": [
        {
          "internalType": "address",
          "name": "",
          "type": "address"
        }
      ],
      "stateMutability": "view",
      "type": "function"
    },
    {
      "inputs": [
        {
          "internalType": "uint256",
          "name": "tokenId",
          "type": "uint256"
        }
      ],
      "name": "ownerOf",
      "outputs": [
        {
          "internalType": "address",
          "name": "",
          "type": "address"
        }
      ],
      "stateMutability": "view",
      "type": "function"
    },
    {
      "inputs": [],
      "name": "provenanceHash",
      "outputs": [
        {
          "internalType": "string",
          "name": "",
          "type": "string"
        }
      ],
      "stateMutability": "view",
      "type": "function"
    },
    {
      "inputs": [],
      "name": "renounceOwnership",
      "outputs": [],
      "stateMutability": "nonpayable",
      "type": "function"
    },
    {
      "inputs": [
        {
          "internalType": "address",
          "name": "from",
          "type": "address"
        },
        {
          "internalType": "address",
          "name": "to",
          "type": "address"
        },
        {
          "internalType": "uint256",
          "name": "tokenId",
          "type": "uint256"
        }
      ],
      "name": "safeTransferFrom",
      "outputs": [],
      "stateMutability": "nonpayable",
      "type": "function"
    },
    {
      "inputs": [
        {
          "internalType": "address",
          "name": "from",
          "type": "address"
        },
        {
          "internalType": "address",
          "name": "to",
          "type": "address"
        },
        {
          "internalType": "uint256",
          "name": "tokenId",
          "type": "uint256"
        },
        {
          "internalType": "bytes",
          "name": "_data",
          "type": "bytes"
        }
      ],
      "name": "safeTransferFrom",
      "outputs": [],
      "stateMutability": "nonpayable",
      "type": "function"
    },
    {
      "inputs": [
        {
          "internalType": "address",
          "name": "operator",
          "type": "address"
        },
        {
          "internalType": "bool",
          "name": "approved",
          "type": "bool"
        }
      ],
      "name": "setApprovalForAll",
      "outputs": [],
      "stateMutability": "nonpayable",
      "type": "function"
    },
    {
      "inputs": [
        {
          "internalType": "string",
          "name": "newbaseURI",
          "type": "string"
        }
      ],
      "name": "setBaseURI",
      "outputs": [],
      "stateMutability": "nonpayable",
      "type": "function"
    },
    {
      "inputs": [
        {
          "internalType": "string",
          "name": "_collectionURI",
          "type": "string"
        }
      ],
      "name": "setCollectionURI",
      "outputs": [],
      "stateMutability": "nonpayable",
      "type": "function"
    },
    {
      "inputs": [
        {
          "internalType": "bytes4",
          "name": "interfaceId",
          "type": "bytes4"
        }
      ],
      "name": "supportsInterface",
      "outputs": [
        {
          "internalType": "bool",
          "name": "",
          "type": "bool"
        }
      ],
      "stateMutability": "view",
      "type": "function"
    },
    {
      "inputs": [],
      "name": "symbol",
      "outputs": [
        {
          "internalType": "string",
          "name": "",
          "type": "string"
        }
      ],
      "stateMutability": "view",
      "type": "function"
    },
    {
      "inputs": [],
      "name": "tag",
      "outputs": [
        {
          "internalType": "string",
          "name": "",
          "type": "string"
        }
      ],
      "stateMutability": "view",
      "type": "function"
    },
    {
      "inputs": [
        {
          "internalType": "uint256",
          "name": "tokenId",
          "type": "uint256"
        }
      ],
      "name": "tokenURI",
      "outputs": [
        {
          "internalType": "string",
          "name": "",
          "type": "string"
        }
      ],
      "stateMutability": "view",
      "type": "function"
    },
    {
      "inputs": [
        {
          "internalType": "address",
          "name": "from",
          "type": "address"
        },
        {
          "internalType": "address",
          "name": "to",
          "type": "address"
        },
        {
          "internalType": "uint256",
          "name": "tokenId",
          "type": "uint256"
        }
      ],
      "name": "transferFrom",
      "outputs": [],
      "stateMutability": "nonpayable",
      "type": "function"
    },
    {
      "inputs": [
        {
          "internalType": "address",
          "name": "newOwner",
          "type": "address"
        }
      ],
      "name": "transferOwnership",
      "outputs": [],
      "stateMutability": "nonpayable",
      "type": "function"
    }
  ],
  "bytecode": "0x60806040523480156200001157600080fd5b506040516200340c3803806200340c8339818101604052810190620000379190620002a7565b828281600090805190602001906200005192919062000185565b5080600190805190602001906200006a92919062000185565b5050506200008d62000081620000b760201b60201c565b620000bf60201b60201c565b600160078190555080600c9080519060200190620000ad92919062000185565b50505050620004b8565b600033905090565b6000600660009054906101000a900473ffffffffffffffffffffffffffffffffffffffff16905081600660006101000a81548173ffffffffffffffffffffffffffffffffffffffff021916908373ffffffffffffffffffffffffffffffffffffffff1602179055508173ffffffffffffffffffffffffffffffffffffffff168173ffffffffffffffffffffffffffffffffffffffff167f8be0079c531659141344cd1fd0a4f28419497f9722a3daafe3b4186f6b6457e060405160405180910390a35050565b8280546200019390620003dd565b90600052602060002090601f016020900481019282620001b7576000855562000203565b82601f10620001d257805160ff191683800117855562000203565b8280016001018555821562000203579182015b8281111562000202578251825591602001919060010190620001e5565b5b50905062000212919062000216565b5090565b5b808211156200023157600081600090555060010162000217565b5090565b60006200024c620002468462000371565b62000348565b9050828152602081018484840111156200026557600080fd5b62000272848285620003a7565b509392505050565b600082601f8301126200028c57600080fd5b81516200029e84826020860162000235565b91505092915050565b600080600060608486031215620002bd57600080fd5b600084015167ffffffffffffffff811115620002d857600080fd5b620002e6868287016200027a565b935050602084015167ffffffffffffffff8111156200030457600080fd5b62000312868287016200027a565b925050604084015167ffffffffffffffff8111156200033057600080fd5b6200033e868287016200027a565b9150509250925092565b60006200035462000367565b905062000362828262000413565b919050565b6000604051905090565b600067ffffffffffffffff8211156200038f576200038e62000478565b5b6200039a82620004a7565b9050602081019050919050565b60005b83811015620003c7578082015181840152602081019050620003aa565b83811115620003d7576000848401525b50505050565b60006002820490506001821680620003f657607f821691505b602082108114156200040d576200040c62000449565b5b50919050565b6200041e82620004a7565b810181811067ffffffffffffffff8211171562000440576200043f62000478565b5b80604052505050565b7f4e487b7100000000000000000000000000000000000000000000000000000000600052602260045260246000fd5b7f4e487b7100000000000000000000000000000000000000000000000000000000600052604160045260246000fd5b6000601f19601f8301169050919050565b612f4480620004c86000396000f3fe608060405234801561001057600080fd5b506004361061014d5760003560e01c8063714c5398116100c3578063b88d4fde1161007c578063b88d4fde14610378578063c6ab67a314610394578063c87b56dd146103b2578063e8a3d485146103e2578063e985e9c514610400578063f2fde38b146104305761014d565b8063714c5398146102da578063715018a6146102f857806383c4c00d146103025780638da5cb5b1461032057806395d89b411461033e578063a22cb4651461035c5761014d565b80632639f460116101155780632639f4601461020857806342842e0e1461022457806351f910661461024057806355f804b31461025e5780636352211e1461027a57806370a08231146102aa5761014d565b806301ffc9a71461015257806306fdde0314610182578063081812fc146101a0578063095ea7b3146101d057806323b872dd146101ec575b600080fd5b61016c60048036038101906101679190611f7b565b61044c565b604051610179919061246e565b60405180910390f35b61018a61052e565b6040516101979190612489565b60405180910390f35b6101ba60048036038101906101b5919061200e565b6105c0565b6040516101c79190612407565b60405180910390f35b6101ea60048036038101906101e59190611f3f565b610645565b005b61020660048036038101906102019190611e39565b61075d565b005b610222600480360381019061021d9190611fcd565b6107bd565b005b61023e60048036038101906102399190611e39565b610895565b005b6102486108b5565b6040516102559190612489565b60405180910390f35b61027860048036038101906102739190611fcd565b610943565b005b610294600480360381019061028f919061200e565b610a1b565b6040516102a19190612407565b60405180910390f35b6102c460048036038101906102bf9190611dd4565b610acd565b6040516102d1919061266b565b60405180910390f35b6102e2610b85565b6040516102ef9190612489565b60405180910390f35b610300610c17565b005b61030a610c9f565b604051610317919061266b565b60405180910390f35b610328610cb0565b6040516103359190612407565b60405180910390f35b610346610cda565b6040516103539190612489565b60405180910390f35b61037660048036038101906103719190611f03565b610d6c565b005b610392600480360381019061038d9190611e88565b610d82565b005b61039c610de4565b6040516103a99190612489565b60405180910390f35b6103cc60048036038101906103c7919061200e565b610e72565b6040516103d99190612489565b60405180910390f35b6103ea610ef0565b6040516103f79190612489565b60405180910390f35b61041a60048036038101906104159190611dfd565b610f82565b604051610427919061246e565b60405180910390f35b61044a60048036038101906104459190611dd4565b611016565b005b60007f80ac58cd000000000000000000000000000000000000000000000000000000007bffffffffffffffffffffffffffffffffffffffffffffffffffffffff1916827bffffffffffffffffffffffffffffffffffffffffffffffffffffffff1916148061051757507f5b5e139f000000000000000000000000000000000000000000000000000000007bffffffffffffffffffffffffffffffffffffffffffffffffffffffff1916827bffffffffffffffffffffffffffffffffffffffffffffffffffffffff1916145b8061052757506105268261110e565b5b9050919050565b60606000805461053d906128d6565b80601f0160208091040260200160405190810160405280929190818152602001828054610569906128d6565b80156105b65780601f1061058b576101008083540402835291602001916105b6565b820191906000526020600020905b81548152906001019060200180831161059957829003601f168201915b5050505050905090565b60006105cb82611178565b61060a576040517f08c379a0000000000000000000000000000000000000000000000000000000008152600401610601906125eb565b60405180910390fd5b6004600083815260200190815260200160002060009054906101000a900473ffffffffffffffffffffffffffffffffffffffff169050919050565b600061065082610a1b565b90508073ffffffffffffffffffffffffffffffffffffffff168373ffffffffffffffffffffffffffffffffffffffff1614156106c1576040517f08c379a00000000000000000000000000000000000000000000000000000000081526004016106b89061262b565b60405180910390fd5b8073ffffffffffffffffffffffffffffffffffffffff166106e06111e4565b73ffffffffffffffffffffffffffffffffffffffff16148061070f575061070e816107096111e4565b610f82565b5b61074e576040517f08c379a00000000000000000000000000000000000000000000000000000000081526004016107459061256b565b60405180910390fd5b61075883836111ec565b505050565b61076e6107686111e4565b826112a5565b6107ad576040517f08c379a00000000000000000000000000000000000000000000000000000000081526004016107a49061264b565b60405180910390fd5b6107b8838383611383565b505050565b6107c56111e4565b73ffffffffffffffffffffffffffffffffffffffff166107e3610cb0565b73ffffffffffffffffffffffffffffffffffffffff1614610839576040517f08c379a00000000000000000000000000000000000000000000000000000000081526004016108309061260b565b60405180910390fd5b80600a908051906020019061084f929190611bf8565b508060405161085e91906123b6565b60405180910390207ff88079580916acca3afc2e0f6ce909bab62d70f38e856286ffd15925be4fd9cc60405160405180910390a250565b6108b083838360405180602001604052806000815250610d82565b505050565b600c80546108c2906128d6565b80601f01602080910402602001604051908101604052809291908181526020018280546108ee906128d6565b801561093b5780601f106109105761010080835404028352916020019161093b565b820191906000526020600020905b81548152906001019060200180831161091e57829003601f168201915b505050505081565b61094b6111e4565b73ffffffffffffffffffffffffffffffffffffffff16610969610cb0565b73ffffffffffffffffffffffffffffffffffffffff16146109bf576040517f08c379a00000000000000000000000000000000000000000000000000000000081526004016109b69061260b565b60405180910390fd5b80600990805190602001906109d5929190611bf8565b50806040516109e491906123b6565b60405180910390207f23c8c9488efebfd474e85a7956de6f39b17c7ab88502d42a623db2d8e382bbaa60405160405180910390a250565b6000806002600084815260200190815260200160002060009054906101000a900473ffffffffffffffffffffffffffffffffffffffff169050600073ffffffffffffffffffffffffffffffffffffffff168173ffffffffffffffffffffffffffffffffffffffff161415610ac4576040517f08c379a0000000000000000000000000000000000000000000000000000000008152600401610abb906125ab565b60405180910390fd5b80915050919050565b60008073ffffffffffffffffffffffffffffffffffffffff168273ffffffffffffffffffffffffffffffffffffffff161415610b3e576040517f08c379a0000000000000000000000000000000000000000000000000000000008152600401610b359061258b565b60405180910390fd5b600360008373ffffffffffffffffffffffffffffffffffffffff1673ffffffffffffffffffffffffffffffffffffffff168152602001908152602001600020549050919050565b606060098054610b94906128d6565b80601f0160208091040260200160405190810160405280929190818152602001828054610bc0906128d6565b8015610c0d5780601f10610be257610100808354040283529160200191610c0d565b820191906000526020600020905b815481529060010190602001808311610bf057829003601f168201915b5050505050905090565b610c1f6111e4565b73ffffffffffffffffffffffffffffffffffffffff16610c3d610cb0565b73ffffffffffffffffffffffffffffffffffffffff1614610c93576040517f08c379a0000000000000000000000000000000000000000000000000000000008152600401610c8a9061260b565b60405180910390fd5b610c9d60006115ea565b565b6000610cab60086116b0565b905090565b6000600660009054906101000a900473ffffffffffffffffffffffffffffffffffffffff16905090565b606060018054610ce9906128d6565b80601f0160208091040260200160405190810160405280929190818152602001828054610d15906128d6565b8015610d625780601f10610d3757610100808354040283529160200191610d62565b820191906000526020600020905b815481529060010190602001808311610d4557829003601f168201915b5050505050905090565b610d7e610d776111e4565b83836116be565b5050565b610d93610d8d6111e4565b836112a5565b610dd2576040517f08c379a0000000000000000000000000000000000000000000000000000000008152600401610dc99061264b565b60405180910390fd5b610dde8484848461182b565b50505050565b600b8054610df1906128d6565b80601f0160208091040260200160405190810160405280929190818152602001828054610e1d906128d6565b8015610e6a5780601f10610e3f57610100808354040283529160200191610e6a565b820191906000526020600020905b815481529060010190602001808311610e4d57829003601f168201915b505050505081565b606081610e7e81611178565b610ebd576040517f08c379a0000000000000000000000000000000000000000000000000000000008152600401610eb4906125cb565b60405180910390fd5b6009610ec884611887565b604051602001610ed99291906123cd565b604051602081830303815290604052915050919050565b6060600a8054610eff906128d6565b80601f0160208091040260200160405190810160405280929190818152602001828054610f2b906128d6565b8015610f785780601f10610f4d57610100808354040283529160200191610f78565b820191906000526020600020905b815481529060010190602001808311610f5b57829003601f168201915b5050505050905090565b6000600560008473ffffffffffffffffffffffffffffffffffffffff1673ffffffffffffffffffffffffffffffffffffffff16815260200190815260200160002060008373ffffffffffffffffffffffffffffffffffffffff1673ffffffffffffffffffffffffffffffffffffffff16815260200190815260200160002060009054906101000a900460ff16905092915050565b61101e6111e4565b73ffffffffffffffffffffffffffffffffffffffff1661103c610cb0565b73ffffffffffffffffffffffffffffffffffffffff1614611092576040517f08c379a00000000000000000000000000000000000000000000000000000000081526004016110899061260b565b60405180910390fd5b600073ffffffffffffffffffffffffffffffffffffffff168173ffffffffffffffffffffffffffffffffffffffff161415611102576040517f08c379a00000000000000000000000000000000000000000000000000000000081526004016110f9906124cb565b60405180910390fd5b61110b816115ea565b50565b60007f01ffc9a7000000000000000000000000000000000000000000000000000000007bffffffffffffffffffffffffffffffffffffffffffffffffffffffff1916827bffffffffffffffffffffffffffffffffffffffffffffffffffffffff1916149050919050565b60008073ffffffffffffffffffffffffffffffffffffffff166002600084815260200190815260200160002060009054906101000a900473ffffffffffffffffffffffffffffffffffffffff1673ffffffffffffffffffffffffffffffffffffffff1614159050919050565b600033905090565b816004600083815260200190815260200160002060006101000a81548173ffffffffffffffffffffffffffffffffffffffff021916908373ffffffffffffffffffffffffffffffffffffffff160217905550808273ffffffffffffffffffffffffffffffffffffffff1661125f83610a1b565b73ffffffffffffffffffffffffffffffffffffffff167f8c5be1e5ebec7d5bd14f71427d1e84f3dd0314c0f7b2291e5b200ac8c7c3b92560405160405180910390a45050565b60006112b082611178565b6112ef576040517f08c379a00000000000000000000000000000000000000000000000000000000081526004016112e69061254b565b60405180910390fd5b60006112fa83610a1b565b90508073ffffffffffffffffffffffffffffffffffffffff168473ffffffffffffffffffffffffffffffffffffffff16148061133c575061133b8185610f82565b5b8061137a57508373ffffffffffffffffffffffffffffffffffffffff16611362846105c0565b73ffffffffffffffffffffffffffffffffffffffff16145b91505092915050565b8273ffffffffffffffffffffffffffffffffffffffff166113a382610a1b565b73ffffffffffffffffffffffffffffffffffffffff16146113f9576040517f08c379a00000000000000000000000000000000000000000000000000000000081526004016113f0906124eb565b60405180910390fd5b600073ffffffffffffffffffffffffffffffffffffffff168273ffffffffffffffffffffffffffffffffffffffff161415611469576040517f08c379a00000000000000000000000000000000000000000000000000000000081526004016114609061250b565b60405180910390fd5b611474838383611a34565b61147f6000826111ec565b6001600360008573ffffffffffffffffffffffffffffffffffffffff1673ffffffffffffffffffffffffffffffffffffffff16815260200190815260200160002060008282546114cf91906127ec565b925050819055506001600360008473ffffffffffffffffffffffffffffffffffffffff1673ffffffffffffffffffffffffffffffffffffffff16815260200190815260200160002060008282546115269190612765565b92505081905550816002600083815260200190815260200160002060006101000a81548173ffffffffffffffffffffffffffffffffffffffff021916908373ffffffffffffffffffffffffffffffffffffffff160217905550808273ffffffffffffffffffffffffffffffffffffffff168473ffffffffffffffffffffffffffffffffffffffff167fddf252ad1be2c89b69c2b068fc378daa952ba7f163c4a11628f55a4df523b3ef60405160405180910390a46115e5838383611a39565b505050565b6000600660009054906101000a900473ffffffffffffffffffffffffffffffffffffffff16905081600660006101000a81548173ffffffffffffffffffffffffffffffffffffffff021916908373ffffffffffffffffffffffffffffffffffffffff1602179055508173ffffffffffffffffffffffffffffffffffffffff168173ffffffffffffffffffffffffffffffffffffffff167f8be0079c531659141344cd1fd0a4f28419497f9722a3daafe3b4186f6b6457e060405160405180910390a35050565b600081600001549050919050565b8173ffffffffffffffffffffffffffffffffffffffff168373ffffffffffffffffffffffffffffffffffffffff16141561172d576040517f08c379a00000000000000000000000000000000000000000000000000000000081526004016117249061252b565b60405180910390fd5b80600560008573ffffffffffffffffffffffffffffffffffffffff1673ffffffffffffffffffffffffffffffffffffffff16815260200190815260200160002060008473ffffffffffffffffffffffffffffffffffffffff1673ffffffffffffffffffffffffffffffffffffffff16815260200190815260200160002060006101000a81548160ff0219169083151502179055508173ffffffffffffffffffffffffffffffffffffffff168373ffffffffffffffffffffffffffffffffffffffff167f17307eab39ab6107e8899845ad3d59bd9653f200f220920489ca2b5937696c318360405161181e919061246e565b60405180910390a3505050565b611836848484611383565b61184284848484611a3e565b611881576040517f08c379a0000000000000000000000000000000000000000000000000000000008152600401611878906124ab565b60405180910390fd5b50505050565b606060008214156118cf576040518060400160405280600181526020017f30000000000000000000000000000000000000000000000000000000000000008152509050611a2f565b600082905060005b600082146119015780806118ea90612939565b915050600a826118fa91906127bb565b91506118d7565b60008167ffffffffffffffff811115611943577f4e487b7100000000000000000000000000000000000000000000000000000000600052604160045260246000fd5b6040519080825280601f01601f1916602001820160405280156119755781602001600182028036833780820191505090505b5090505b60008514611a285760018261198e91906127ec565b9150600a8561199d9190612982565b60306119a99190612765565b60f81b8183815181106119e5577f4e487b7100000000000000000000000000000000000000000000000000000000600052603260045260246000fd5b60200101907effffffffffffffffffffffffffffffffffffffffffffffffffffffffffffff1916908160001a905350600a85611a2191906127bb565b9450611979565b8093505050505b919050565b505050565b505050565b6000611a5f8473ffffffffffffffffffffffffffffffffffffffff16611bd5565b15611bc8578373ffffffffffffffffffffffffffffffffffffffff1663150b7a02611a886111e4565b8786866040518563ffffffff1660e01b8152600401611aaa9493929190612422565b602060405180830381600087803b158015611ac457600080fd5b505af1925050508015611af557506040513d601f19601f82011682018060405250810190611af29190611fa4565b60015b611b78573d8060008114611b25576040519150601f19603f3d011682016040523d82523d6000602084013e611b2a565b606091505b50600081511415611b70576040517f08c379a0000000000000000000000000000000000000000000000000000000008152600401611b67906124ab565b60405180910390fd5b805181602001fd5b63150b7a0260e01b7bffffffffffffffffffffffffffffffffffffffffffffffffffffffff1916817bffffffffffffffffffffffffffffffffffffffffffffffffffffffff191614915050611bcd565b600190505b949350505050565b6000808273ffffffffffffffffffffffffffffffffffffffff163b119050919050565b828054611c04906128d6565b90600052602060002090601f016020900481019282611c265760008555611c6d565b82601f10611c3f57805160ff1916838001178555611c6d565b82800160010185558215611c6d579182015b82811115611c6c578251825591602001919060010190611c51565b5b509050611c7a9190611c7e565b5090565b5b80821115611c97576000816000905550600101611c7f565b5090565b6000611cae611ca9846126ab565b612686565b905082815260208101848484011115611cc657600080fd5b611cd1848285612894565b509392505050565b6000611cec611ce7846126dc565b612686565b905082815260208101848484011115611d0457600080fd5b611d0f848285612894565b509392505050565b600081359050611d2681612eb2565b92915050565b600081359050611d3b81612ec9565b92915050565b600081359050611d5081612ee0565b92915050565b600081519050611d6581612ee0565b92915050565b600082601f830112611d7c57600080fd5b8135611d8c848260208601611c9b565b91505092915050565b600082601f830112611da657600080fd5b8135611db6848260208601611cd9565b91505092915050565b600081359050611dce81612ef7565b92915050565b600060208284031215611de657600080fd5b6000611df484828501611d17565b91505092915050565b60008060408385031215611e1057600080fd5b6000611e1e85828601611d17565b9250506020611e2f85828601611d17565b9150509250929050565b600080600060608486031215611e4e57600080fd5b6000611e5c86828701611d17565b9350506020611e6d86828701611d17565b9250506040611e7e86828701611dbf565b9150509250925092565b60008060008060808587031215611e9e57600080fd5b6000611eac87828801611d17565b9450506020611ebd87828801611d17565b9350506040611ece87828801611dbf565b925050606085013567ffffffffffffffff811115611eeb57600080fd5b611ef787828801611d6b565b91505092959194509250565b60008060408385031215611f1657600080fd5b6000611f2485828601611d17565b9250506020611f3585828601611d2c565b9150509250929050565b60008060408385031215611f5257600080fd5b6000611f6085828601611d17565b9250506020611f7185828601611dbf565b9150509250929050565b600060208284031215611f8d57600080fd5b6000611f9b84828501611d41565b91505092915050565b600060208284031215611fb657600080fd5b6000611fc484828501611d56565b91505092915050565b600060208284031215611fdf57600080fd5b600082013567ffffffffffffffff811115611ff957600080fd5b61200584828501611d95565b91505092915050565b60006020828403121561202057600080fd5b600061202e84828501611dbf565b91505092915050565b61204081612820565b82525050565b61204f81612832565b82525050565b600061206082612722565b61206a8185612738565b935061207a8185602086016128a3565b61208381612a6f565b840191505092915050565b60006120998261272d565b6120a38185612749565b93506120b38185602086016128a3565b6120bc81612a6f565b840191505092915050565b60006120d28261272d565b6120dc818561275a565b93506120ec8185602086016128a3565b80840191505092915050565b60008154612105816128d6565b61210f818661275a565b9450600182166000811461212a576001811461213b5761216e565b60ff1983168652818601935061216e565b6121448561270d565b60005b8381101561216657815481890152600182019150602081019050612147565b838801955050505b50505092915050565b6000612184603283612749565b915061218f82612a80565b604082019050919050565b60006121a7602683612749565b91506121b282612acf565b604082019050919050565b60006121ca602583612749565b91506121d582612b1e565b604082019050919050565b60006121ed602483612749565b91506121f882612b6d565b604082019050919050565b6000612210601983612749565b915061221b82612bbc565b602082019050919050565b6000612233602c83612749565b915061223e82612be5565b604082019050919050565b6000612256603883612749565b915061226182612c34565b604082019050919050565b6000612279602a83612749565b915061228482612c83565b604082019050919050565b600061229c602983612749565b91506122a782612cd2565b604082019050919050565b60006122bf601283612749565b91506122ca82612d21565b602082019050919050565b60006122e2602c83612749565b91506122ed82612d4a565b604082019050919050565b600061230560058361275a565b915061231082612d99565b600582019050919050565b6000612328602083612749565b915061233382612dc2565b602082019050919050565b600061234b602183612749565b915061235682612deb565b604082019050919050565b600061236e603183612749565b915061237982612e3a565b604082019050919050565b600061239160018361275a565b915061239c82612e89565b600182019050919050565b6123b08161288a565b82525050565b60006123c282846120c7565b915081905092915050565b60006123d982856120f8565b91506123e482612384565b91506123f082846120c7565b91506123fb826122f8565b91508190509392505050565b600060208201905061241c6000830184612037565b92915050565b60006080820190506124376000830187612037565b6124446020830186612037565b61245160408301856123a7565b81810360608301526124638184612055565b905095945050505050565b60006020820190506124836000830184612046565b92915050565b600060208201905081810360008301526124a3818461208e565b905092915050565b600060208201905081810360008301526124c481612177565b9050919050565b600060208201905081810360008301526124e48161219a565b9050919050565b60006020820190508181036000830152612504816121bd565b9050919050565b60006020820190508181036000830152612524816121e0565b9050919050565b6000602082019050818103600083015261254481612203565b9050919050565b6000602082019050818103600083015261256481612226565b9050919050565b6000602082019050818103600083015261258481612249565b9050919050565b600060208201905081810360008301526125a48161226c565b9050919050565b600060208201905081810360008301526125c48161228f565b9050919050565b600060208201905081810360008301526125e4816122b2565b9050919050565b60006020820190508181036000830152612604816122d5565b9050919050565b600060208201905081810360008301526126248161231b565b9050919050565b600060208201905081810360008301526126448161233e565b9050919050565b6000602082019050818103600083015261266481612361565b9050919050565b600060208201905061268060008301846123a7565b92915050565b60006126906126a1565b905061269c8282612908565b919050565b6000604051905090565b600067ffffffffffffffff8211156126c6576126c5612a40565b5b6126cf82612a6f565b9050602081019050919050565b600067ffffffffffffffff8211156126f7576126f6612a40565b5b61270082612a6f565b9050602081019050919050565b60008190508160005260206000209050919050565b600081519050919050565b600081519050919050565b600082825260208201905092915050565b600082825260208201905092915050565b600081905092915050565b60006127708261288a565b915061277b8361288a565b9250827fffffffffffffffffffffffffffffffffffffffffffffffffffffffffffffffff038211156127b0576127af6129b3565b5b828201905092915050565b60006127c68261288a565b91506127d18361288a565b9250826127e1576127e06129e2565b5b828204905092915050565b60006127f78261288a565b91506128028361288a565b925082821015612815576128146129b3565b5b828203905092915050565b600061282b8261286a565b9050919050565b60008115159050919050565b60007fffffffff0000000000000000000000000000000000000000000000000000000082169050919050565b600073ffffffffffffffffffffffffffffffffffffffff82169050919050565b6000819050919050565b82818337600083830152505050565b60005b838110156128c15780820151818401526020810190506128a6565b838111156128d0576000848401525b50505050565b600060028204905060018216806128ee57607f821691505b6020821081141561290257612901612a11565b5b50919050565b61291182612a6f565b810181811067ffffffffffffffff821117156129305761292f612a40565b5b80604052505050565b60006129448261288a565b91507fffffffffffffffffffffffffffffffffffffffffffffffffffffffffffffffff821415612977576129766129b3565b5b600182019050919050565b600061298d8261288a565b91506129988361288a565b9250826129a8576129a76129e2565b5b828206905092915050565b7f4e487b7100000000000000000000000000000000000000000000000000000000600052601160045260246000fd5b7f4e487b7100000000000000000000000000000000000000000000000000000000600052601260045260246000fd5b7f4e487b7100000000000000000000000000000000000000000000000000000000600052602260045260246000fd5b7f4e487b7100000000000000000000000000000000000000000000000000000000600052604160045260246000fd5b6000601f19601f8301169050919050565b7f4552433732313a207472616e7366657220746f206e6f6e20455243373231526560008201527f63656976657220696d706c656d656e7465720000000000000000000000000000602082015250565b7f4f776e61626c653a206e6577206f776e657220697320746865207a65726f206160008201527f6464726573730000000000000000000000000000000000000000000000000000602082015250565b7f4552433732313a207472616e736665722066726f6d20696e636f72726563742060008201527f6f776e6572000000000000000000000000000000000000000000000000000000602082015250565b7f4552433732313a207472616e7366657220746f20746865207a65726f2061646460008201527f7265737300000000000000000000000000000000000000000000000000000000602082015250565b7f4552433732313a20617070726f766520746f2063616c6c657200000000000000600082015250565b7f4552433732313a206f70657261746f7220717565727920666f72206e6f6e657860008201527f697374656e7420746f6b656e0000000000000000000000000000000000000000602082015250565b7f4552433732313a20617070726f76652063616c6c6572206973206e6f74206f7760008201527f6e6572206e6f7220617070726f76656420666f7220616c6c0000000000000000602082015250565b7f4552433732313a2062616c616e636520717565727920666f7220746865207a6560008201527f726f206164647265737300000000000000000000000000000000000000000000602082015250565b7f4552433732313a206f776e657220717565727920666f72206e6f6e657869737460008201527f656e7420746f6b656e0000000000000000000000000000000000000000000000602082015250565b7f4e6f6e2d6578697374656e7420746f6b656e0000000000000000000000000000600082015250565b7f4552433732313a20617070726f76656420717565727920666f72206e6f6e657860008201527f697374656e7420746f6b656e0000000000000000000000000000000000000000602082015250565b7f2e6a736f6e000000000000000000000000000000000000000000000000000000600082015250565b7f4f776e61626c653a2063616c6c6572206973206e6f7420746865206f776e6572600082015250565b7f4552433732313a20617070726f76616c20746f2063757272656e74206f776e6560008201527f7200000000000000000000000000000000000000000000000000000000000000602082015250565b7f4552433732313a207472616e736665722063616c6c6572206973206e6f74206f60008201527f776e6572206e6f7220617070726f766564000000000000000000000000000000602082015250565b7f2f00000000000000000000000000000000000000000000000000000000000000600082015250565b612ebb81612820565b8114612ec657600080fd5b50565b612ed281612832565b8114612edd57600080fd5b50565b612ee98161283e565b8114612ef457600080fd5b50565b612f008161288a565b8114612f0b57600080fd5b5056fea26469706673582212208b01c4e59115e0a3daf2997b40267463e6d43af591e2285913d0ff180becffa264736f6c63430008040033",
  "linkReferences": {},
  "deployedLinkReferences": {}
}