{
  "_format": "hh-sol-artifact-1",
  "contractName": "Membership",
  "sourceName": "contracts/Membership.sol",
  "abi": [
    {
      "inputs": [
        {
          "internalType": "string",
          "name": "_name",
          "type": "string"
        },
        {
          "internalType": "string",
          "name": "_symbol",
          "type": "string"
        }
      ],
      "stateMutability": "nonpayable",
      "type": "constructor"
    },
    {
      "anonymous": false,
      "inputs": [
        {
          "indexed": true,
          "internalType": "address",
          "name": "owner",
          "type": "address"
        },
        {
          "indexed": true,
          "internalType": "address",
          "name": "approved",
          "type": "address"
        },
        {
          "indexed": true,
          "internalType": "uint256",
          "name": "tokenId",
          "type": "uint256"
        }
      ],
      "name": "Approval",
      "type": "event"
    },
    {
      "anonymous": false,
      "inputs": [
        {
          "indexed": true,
          "internalType": "address",
          "name": "owner",
          "type": "address"
        },
        {
          "indexed": true,
          "internalType": "address",
          "name": "operator",
          "type": "address"
        },
        {
          "indexed": false,
          "internalType": "bool",
          "name": "approved",
          "type": "bool"
        }
      ],
      "name": "ApprovalForAll",
      "type": "event"
    },
    {
      "anonymous": false,
      "inputs": [
        {
          "indexed": true,
          "internalType": "address",
          "name": "previousOwner",
          "type": "address"
        },
        {
          "indexed": true,
          "internalType": "address",
          "name": "newOwner",
          "type": "address"
        }
      ],
      "name": "OwnershipTransferred",
      "type": "event"
    },
    {
      "anonymous": false,
      "inputs": [
        {
          "indexed": true,
          "internalType": "string",
          "name": "uri",
          "type": "string"
        }
      ],
      "name": "SetBaseURI",
      "type": "event"
    },
    {
      "anonymous": false,
      "inputs": [
        {
          "indexed": true,
          "internalType": "string",
          "name": "uri",
          "type": "string"
        }
      ],
      "name": "SetCollectionURI",
      "type": "event"
    },
    {
      "anonymous": false,
      "inputs": [
        {
          "indexed": true,
          "internalType": "address",
          "name": "from",
          "type": "address"
        },
        {
          "indexed": true,
          "internalType": "address",
          "name": "to",
          "type": "address"
        },
        {
          "indexed": true,
          "internalType": "uint256",
          "name": "tokenId",
          "type": "uint256"
        }
      ],
      "name": "Transfer",
      "type": "event"
    },
    {
      "inputs": [
        {
          "internalType": "address",
          "name": "to",
          "type": "address"
        },
        {
          "internalType": "uint256",
          "name": "tokenId",
          "type": "uint256"
        }
      ],
      "name": "approve",
      "outputs": [],
      "stateMutability": "nonpayable",
      "type": "function"
    },
    {
      "inputs": [
        {
          "internalType": "address",
          "name": "owner",
          "type": "address"
        }
      ],
      "name": "balanceOf",
      "outputs": [
        {
          "internalType": "uint256",
          "name": "",
          "type": "uint256"
        }
      ],
      "stateMutability": "view",
      "type": "function"
    },
    {
      "inputs": [],
      "name": "contractURI",
      "outputs": [
        {
          "internalType": "string",
          "name": "",
          "type": "string"
        }
      ],
      "stateMutability": "view",
      "type": "function"
    },
    {
      "inputs": [
        {
          "internalType": "uint256",
          "name": "tokenId",
          "type": "uint256"
        }
      ],
      "name": "getApproved",
      "outputs": [
        {
          "internalType": "address",
          "name": "",
          "type": "address"
        }
      ],
      "stateMutability": "view",
      "type": "function"
    },
    {
      "inputs": [],
      "name": "getBaseURI",
      "outputs": [
        {
          "internalType": "string",
          "name": "",
          "type": "string"
        }
      ],
      "stateMutability": "view",
      "type": "function"
    },
    {
      "inputs": [],
      "name": "getLastTokenId",
      "outputs": [
        {
          "internalType": "uint256",
          "name": "",
          "type": "uint256"
        }
      ],
      "stateMutability": "view",
      "type": "function"
    },
    {
      "inputs": [
        {
          "internalType": "address",
          "name": "owner",
          "type": "address"
        },
        {
          "internalType": "address",
          "name": "operator",
          "type": "address"
        }
      ],
      "name": "isApprovedForAll",
      "outputs": [
        {
          "internalType": "bool",
          "name": "",
          "type": "bool"
        }
      ],
      "stateMutability": "view",
      "type": "function"
    },
    {
      "inputs": [],
      "name": "name",
      "outputs": [
        {
          "internalType": "string",
          "name": "",
          "type": "string"
        }
      ],
      "stateMutability": "view",
      "type": "function"
    },
    {
      "inputs": [],
      "name": "owner",
      "outputs": [
        {
          "internalType": "address",
          "name": "",
          "type": "address"
        }
      ],
      "stateMutability": "view",
      "type": "function"
    },
    {
      "inputs": [
        {
          "internalType": "uint256",
          "name": "tokenId",
          "type": "uint256"
        }
      ],
      "name": "ownerOf",
      "outputs": [
        {
          "internalType": "address",
          "name": "",
          "type": "address"
        }
      ],
      "stateMutability": "view",
      "type": "function"
    },
    {
      "inputs": [],
      "name": "renounceOwnership",
      "outputs": [],
      "stateMutability": "nonpayable",
      "type": "function"
    },
    {
      "inputs": [
        {
          "internalType": "address",
          "name": "to",
          "type": "address"
        },
        {
          "internalType": "string",
          "name": "uri",
          "type": "string"
        }
      ],
      "name": "safeMint",
      "outputs": [],
      "stateMutability": "nonpayable",
      "type": "function"
    },
    {
      "inputs": [
        {
          "internalType": "address",
          "name": "from",
          "type": "address"
        },
        {
          "internalType": "address",
          "name": "to",
          "type": "address"
        },
        {
          "internalType": "uint256",
          "name": "tokenId",
          "type": "uint256"
        }
      ],
      "name": "safeTransferFrom",
      "outputs": [],
      "stateMutability": "nonpayable",
      "type": "function"
    },
    {
      "inputs": [
        {
          "internalType": "address",
          "name": "from",
          "type": "address"
        },
        {
          "internalType": "address",
          "name": "to",
          "type": "address"
        },
        {
          "internalType": "uint256",
          "name": "tokenId",
          "type": "uint256"
        },
        {
          "internalType": "bytes",
          "name": "_data",
          "type": "bytes"
        }
      ],
      "name": "safeTransferFrom",
      "outputs": [],
      "stateMutability": "nonpayable",
      "type": "function"
    },
    {
      "inputs": [
        {
          "internalType": "address",
          "name": "operator",
          "type": "address"
        },
        {
          "internalType": "bool",
          "name": "approved",
          "type": "bool"
        }
      ],
      "name": "setApprovalForAll",
      "outputs": [],
      "stateMutability": "nonpayable",
      "type": "function"
    },
    {
      "inputs": [
        {
          "internalType": "string",
          "name": "newbaseURI",
          "type": "string"
        }
      ],
      "name": "setBaseURI",
      "outputs": [],
      "stateMutability": "nonpayable",
      "type": "function"
    },
    {
      "inputs": [
        {
          "internalType": "string",
          "name": "_collectionURI",
          "type": "string"
        }
      ],
      "name": "setCollectionURI",
      "outputs": [],
      "stateMutability": "nonpayable",
      "type": "function"
    },
    {
      "inputs": [
        {
          "internalType": "bytes4",
          "name": "interfaceId",
          "type": "bytes4"
        }
      ],
      "name": "supportsInterface",
      "outputs": [
        {
          "internalType": "bool",
          "name": "",
          "type": "bool"
        }
      ],
      "stateMutability": "view",
      "type": "function"
    },
    {
      "inputs": [],
      "name": "symbol",
      "outputs": [
        {
          "internalType": "string",
          "name": "",
          "type": "string"
        }
      ],
      "stateMutability": "view",
      "type": "function"
    },
    {
      "inputs": [
        {
          "internalType": "uint256",
          "name": "tokenId",
          "type": "uint256"
        }
      ],
      "name": "tokenURI",
      "outputs": [
        {
          "internalType": "string",
          "name": "",
          "type": "string"
        }
      ],
      "stateMutability": "view",
      "type": "function"
    },
    {
      "inputs": [
        {
          "internalType": "address",
          "name": "from",
          "type": "address"
        },
        {
          "internalType": "address",
          "name": "to",
          "type": "address"
        },
        {
          "internalType": "uint256",
          "name": "tokenId",
          "type": "uint256"
        }
      ],
      "name": "transferFrom",
      "outputs": [],
      "stateMutability": "nonpayable",
      "type": "function"
    },
    {
      "inputs": [
        {
          "internalType": "address",
          "name": "newOwner",
          "type": "address"
        }
      ],
      "name": "transferOwnership",
      "outputs": [],
      "stateMutability": "nonpayable",
      "type": "function"
    }
  ],
  "bytecode": "0x60806040523480156200001157600080fd5b50604051620036d6380380620036d683398181016040528101906200003791906200028d565b81818160009080519060200190620000519291906200016b565b5080600190805190602001906200006a9291906200016b565b5050506200008d620000816200009d60201b60201c565b620000a560201b60201c565b6001600781905550505062000470565b600033905090565b6000600660009054906101000a900473ffffffffffffffffffffffffffffffffffffffff16905081600660006101000a81548173ffffffffffffffffffffffffffffffffffffffff021916908373ffffffffffffffffffffffffffffffffffffffff1602179055508173ffffffffffffffffffffffffffffffffffffffff168173ffffffffffffffffffffffffffffffffffffffff167f8be0079c531659141344cd1fd0a4f28419497f9722a3daafe3b4186f6b6457e060405160405180910390a35050565b828054620001799062000395565b90600052602060002090601f0160209004810192826200019d5760008555620001e9565b82601f10620001b857805160ff1916838001178555620001e9565b82800160010185558215620001e9579182015b82811115620001e8578251825591602001919060010190620001cb565b5b509050620001f89190620001fc565b5090565b5b8082111562000217576000816000905550600101620001fd565b5090565b6000620002326200022c8462000329565b62000300565b9050828152602081018484840111156200024b57600080fd5b620002588482856200035f565b509392505050565b600082601f8301126200027257600080fd5b8151620002848482602086016200021b565b91505092915050565b60008060408385031215620002a157600080fd5b600083015167ffffffffffffffff811115620002bc57600080fd5b620002ca8582860162000260565b925050602083015167ffffffffffffffff811115620002e857600080fd5b620002f68582860162000260565b9150509250929050565b60006200030c6200031f565b90506200031a8282620003cb565b919050565b6000604051905090565b600067ffffffffffffffff82111562000347576200034662000430565b5b62000352826200045f565b9050602081019050919050565b60005b838110156200037f57808201518184015260208101905062000362565b838111156200038f576000848401525b50505050565b60006002820490506001821680620003ae57607f821691505b60208210811415620003c557620003c462000401565b5b50919050565b620003d6826200045f565b810181811067ffffffffffffffff82111715620003f857620003f762000430565b5b80604052505050565b7f4e487b7100000000000000000000000000000000000000000000000000000000600052602260045260246000fd5b7f4e487b7100000000000000000000000000000000000000000000000000000000600052604160045260246000fd5b6000601f19601f8301169050919050565b61325680620004806000396000f3fe608060405234801561001057600080fd5b50600436106101425760003560e01c8063715018a6116100b8578063b88d4fde1161007c578063b88d4fde1461034f578063c87b56dd1461036b578063d204c45e1461039b578063e8a3d485146103b7578063e985e9c5146103d5578063f2fde38b1461040557610142565b8063715018a6146102cf57806383c4c00d146102d95780638da5cb5b146102f757806395d89b4114610315578063a22cb4651461033357610142565b80632639f4601161010a5780632639f460146101fd57806342842e0e1461021957806355f804b3146102355780636352211e1461025157806370a0823114610281578063714c5398146102b157610142565b806301ffc9a71461014757806306fdde0314610177578063081812fc14610195578063095ea7b3146101c557806323b872dd146101e1575b600080fd5b610161600480360381019061015c9190612265565b610421565b60405161016e91906126e6565b60405180910390f35b61017f610503565b60405161018c9190612701565b60405180910390f35b6101af60048036038101906101aa91906122f8565b610595565b6040516101bc919061267f565b60405180910390f35b6101df60048036038101906101da9190612229565b61061a565b005b6101fb60048036038101906101f691906120cf565b610732565b005b610217600480360381019061021291906122b7565b610792565b005b610233600480360381019061022e91906120cf565b61086a565b005b61024f600480360381019061024a91906122b7565b61088a565b005b61026b600480360381019061026691906122f8565b610962565b604051610278919061267f565b60405180910390f35b61029b6004803603810190610296919061206a565b610a14565b6040516102a89190612943565b60405180910390f35b6102b9610acc565b6040516102c69190612701565b60405180910390f35b6102d7610b5e565b005b6102e1610be6565b6040516102ee9190612943565b60405180910390f35b6102ff610bf7565b60405161030c919061267f565b60405180910390f35b61031d610c21565b60405161032a9190612701565b60405180910390f35b61034d60048036038101906103489190612199565b610cb3565b005b6103696004803603810190610364919061211e565b610cc9565b005b610385600480360381019061038091906122f8565b610d2b565b6040516103929190612701565b60405180910390f35b6103b560048036038101906103b091906121d5565b610d3d565b005b6103bf610de0565b6040516103cc9190612701565b60405180910390f35b6103ef60048036038101906103ea9190612093565b610e72565b6040516103fc91906126e6565b60405180910390f35b61041f600480360381019061041a919061206a565b610f06565b005b60007f80ac58cd000000000000000000000000000000000000000000000000000000007bffffffffffffffffffffffffffffffffffffffffffffffffffffffff1916827bffffffffffffffffffffffffffffffffffffffffffffffffffffffff191614806104ec57507f5b5e139f000000000000000000000000000000000000000000000000000000007bffffffffffffffffffffffffffffffffffffffffffffffffffffffff1916827bffffffffffffffffffffffffffffffffffffffffffffffffffffffff1916145b806104fc57506104fb82610ffe565b5b9050919050565b60606000805461051290612b99565b80601f016020809104026020016040519081016040528092919081815260200182805461053e90612b99565b801561058b5780601f106105605761010080835404028352916020019161058b565b820191906000526020600020905b81548152906001019060200180831161056e57829003601f168201915b5050505050905090565b60006105a082611068565b6105df576040517f08c379a00000000000000000000000000000000000000000000000000000000081526004016105d690612883565b60405180910390fd5b6004600083815260200190815260200160002060009054906101000a900473ffffffffffffffffffffffffffffffffffffffff169050919050565b600061062582610962565b90508073ffffffffffffffffffffffffffffffffffffffff168373ffffffffffffffffffffffffffffffffffffffff161415610696576040517f08c379a000000000000000000000000000000000000000000000000000000000815260040161068d906128e3565b60405180910390fd5b8073ffffffffffffffffffffffffffffffffffffffff166106b56110d4565b73ffffffffffffffffffffffffffffffffffffffff1614806106e457506106e3816106de6110d4565b610e72565b5b610723576040517f08c379a000000000000000000000000000000000000000000000000000000000815260040161071a90612803565b60405180910390fd5b61072d83836110dc565b505050565b61074361073d6110d4565b82611195565b610782576040517f08c379a000000000000000000000000000000000000000000000000000000000815260040161077990612903565b60405180910390fd5b61078d838383611273565b505050565b61079a6110d4565b73ffffffffffffffffffffffffffffffffffffffff166107b8610bf7565b73ffffffffffffffffffffffffffffffffffffffff161461080e576040517f08c379a0000000000000000000000000000000000000000000000000000000008152600401610805906128a3565b60405180910390fd5b8060099080519060200190610824929190611e8e565b50806040516108339190612644565b60405180910390207ff88079580916acca3afc2e0f6ce909bab62d70f38e856286ffd15925be4fd9cc60405160405180910390a250565b61088583838360405180602001604052806000815250610cc9565b505050565b6108926110d4565b73ffffffffffffffffffffffffffffffffffffffff166108b0610bf7565b73ffffffffffffffffffffffffffffffffffffffff1614610906576040517f08c379a00000000000000000000000000000000000000000000000000000000081526004016108fd906128a3565b60405180910390fd5b806008908051906020019061091c929190611e8e565b508060405161092b9190612644565b60405180910390207f23c8c9488efebfd474e85a7956de6f39b17c7ab88502d42a623db2d8e382bbaa60405160405180910390a250565b6000806002600084815260200190815260200160002060009054906101000a900473ffffffffffffffffffffffffffffffffffffffff169050600073ffffffffffffffffffffffffffffffffffffffff168173ffffffffffffffffffffffffffffffffffffffff161415610a0b576040517f08c379a0000000000000000000000000000000000000000000000000000000008152600401610a0290612843565b60405180910390fd5b80915050919050565b60008073ffffffffffffffffffffffffffffffffffffffff168273ffffffffffffffffffffffffffffffffffffffff161415610a85576040517f08c379a0000000000000000000000000000000000000000000000000000000008152600401610a7c90612823565b60405180910390fd5b600360008373ffffffffffffffffffffffffffffffffffffffff1673ffffffffffffffffffffffffffffffffffffffff168152602001908152602001600020549050919050565b606060088054610adb90612b99565b80601f0160208091040260200160405190810160405280929190818152602001828054610b0790612b99565b8015610b545780601f10610b2957610100808354040283529160200191610b54565b820191906000526020600020905b815481529060010190602001808311610b3757829003601f168201915b5050505050905090565b610b666110d4565b73ffffffffffffffffffffffffffffffffffffffff16610b84610bf7565b73ffffffffffffffffffffffffffffffffffffffff1614610bda576040517f08c379a0000000000000000000000000000000000000000000000000000000008152600401610bd1906128a3565b60405180910390fd5b610be460006114da565b565b6000610bf2600a6115a0565b905090565b6000600660009054906101000a900473ffffffffffffffffffffffffffffffffffffffff16905090565b606060018054610c3090612b99565b80601f0160208091040260200160405190810160405280929190818152602001828054610c5c90612b99565b8015610ca95780601f10610c7e57610100808354040283529160200191610ca9565b820191906000526020600020905b815481529060010190602001808311610c8c57829003601f168201915b5050505050905090565b610cc5610cbe6110d4565b83836115ae565b5050565b610cda610cd46110d4565b83611195565b610d19576040517f08c379a0000000000000000000000000000000000000000000000000000000008152600401610d1090612903565b60405180910390fd5b610d258484848461171b565b50505050565b6060610d3682611777565b9050919050565b610d456110d4565b73ffffffffffffffffffffffffffffffffffffffff16610d63610bf7565b73ffffffffffffffffffffffffffffffffffffffff1614610db9576040517f08c379a0000000000000000000000000000000000000000000000000000000008152600401610db0906128a3565b60405180910390fd5b6000610dc5600a6115a0565b9050610dd1600a61181e565b610ddb8382611834565b505050565b606060098054610def90612b99565b80601f0160208091040260200160405190810160405280929190818152602001828054610e1b90612b99565b8015610e685780601f10610e3d57610100808354040283529160200191610e68565b820191906000526020600020905b815481529060010190602001808311610e4b57829003601f168201915b5050505050905090565b6000600560008473ffffffffffffffffffffffffffffffffffffffff1673ffffffffffffffffffffffffffffffffffffffff16815260200190815260200160002060008373ffffffffffffffffffffffffffffffffffffffff1673ffffffffffffffffffffffffffffffffffffffff16815260200190815260200160002060009054906101000a900460ff16905092915050565b610f0e6110d4565b73ffffffffffffffffffffffffffffffffffffffff16610f2c610bf7565b73ffffffffffffffffffffffffffffffffffffffff1614610f82576040517f08c379a0000000000000000000000000000000000000000000000000000000008152600401610f79906128a3565b60405180910390fd5b600073ffffffffffffffffffffffffffffffffffffffff168173ffffffffffffffffffffffffffffffffffffffff161415610ff2576040517f08c379a0000000000000000000000000000000000000000000000000000000008152600401610fe990612743565b60405180910390fd5b610ffb816114da565b50565b60007f01ffc9a7000000000000000000000000000000000000000000000000000000007bffffffffffffffffffffffffffffffffffffffffffffffffffffffff1916827bffffffffffffffffffffffffffffffffffffffffffffffffffffffff1916149050919050565b60008073ffffffffffffffffffffffffffffffffffffffff166002600084815260200190815260200160002060009054906101000a900473ffffffffffffffffffffffffffffffffffffffff1673ffffffffffffffffffffffffffffffffffffffff1614159050919050565b600033905090565b816004600083815260200190815260200160002060006101000a81548173ffffffffffffffffffffffffffffffffffffffff021916908373ffffffffffffffffffffffffffffffffffffffff160217905550808273ffffffffffffffffffffffffffffffffffffffff1661114f83610962565b73ffffffffffffffffffffffffffffffffffffffff167f8c5be1e5ebec7d5bd14f71427d1e84f3dd0314c0f7b2291e5b200ac8c7c3b92560405160405180910390a45050565b60006111a082611068565b6111df576040517f08c379a00000000000000000000000000000000000000000000000000000000081526004016111d6906127e3565b60405180910390fd5b60006111ea83610962565b90508073ffffffffffffffffffffffffffffffffffffffff168473ffffffffffffffffffffffffffffffffffffffff16148061122c575061122b8185610e72565b5b8061126a57508373ffffffffffffffffffffffffffffffffffffffff1661125284610595565b73ffffffffffffffffffffffffffffffffffffffff16145b91505092915050565b8273ffffffffffffffffffffffffffffffffffffffff1661129382610962565b73ffffffffffffffffffffffffffffffffffffffff16146112e9576040517f08c379a00000000000000000000000000000000000000000000000000000000081526004016112e090612763565b60405180910390fd5b600073ffffffffffffffffffffffffffffffffffffffff168273ffffffffffffffffffffffffffffffffffffffff161415611359576040517f08c379a0000000000000000000000000000000000000000000000000000000008152600401611350906127a3565b60405180910390fd5b611364838383611852565b61136f6000826110dc565b6001600360008573ffffffffffffffffffffffffffffffffffffffff1673ffffffffffffffffffffffffffffffffffffffff16815260200190815260200160002060008282546113bf9190612aaf565b925050819055506001600360008473ffffffffffffffffffffffffffffffffffffffff1673ffffffffffffffffffffffffffffffffffffffff16815260200190815260200160002060008282546114169190612a28565b92505081905550816002600083815260200190815260200160002060006101000a81548173ffffffffffffffffffffffffffffffffffffffff021916908373ffffffffffffffffffffffffffffffffffffffff160217905550808273ffffffffffffffffffffffffffffffffffffffff168473ffffffffffffffffffffffffffffffffffffffff167fddf252ad1be2c89b69c2b068fc378daa952ba7f163c4a11628f55a4df523b3ef60405160405180910390a46114d58383836118d1565b505050565b6000600660009054906101000a900473ffffffffffffffffffffffffffffffffffffffff16905081600660006101000a81548173ffffffffffffffffffffffffffffffffffffffff021916908373ffffffffffffffffffffffffffffffffffffffff1602179055508173ffffffffffffffffffffffffffffffffffffffff168173ffffffffffffffffffffffffffffffffffffffff167f8be0079c531659141344cd1fd0a4f28419497f9722a3daafe3b4186f6b6457e060405160405180910390a35050565b600081600001549050919050565b8173ffffffffffffffffffffffffffffffffffffffff168373ffffffffffffffffffffffffffffffffffffffff16141561161d576040517f08c379a0000000000000000000000000000000000000000000000000000000008152600401611614906127c3565b60405180910390fd5b80600560008573ffffffffffffffffffffffffffffffffffffffff1673ffffffffffffffffffffffffffffffffffffffff16815260200190815260200160002060008473ffffffffffffffffffffffffffffffffffffffff1673ffffffffffffffffffffffffffffffffffffffff16815260200190815260200160002060006101000a81548160ff0219169083151502179055508173ffffffffffffffffffffffffffffffffffffffff168373ffffffffffffffffffffffffffffffffffffffff167f17307eab39ab6107e8899845ad3d59bd9653f200f220920489ca2b5937696c318360405161170e91906126e6565b60405180910390a3505050565b611726848484611273565b611732848484846118d6565b611771576040517f08c379a000000000000000000000000000000000000000000000000000000000815260040161176890612723565b60405180910390fd5b50505050565b606061178282611068565b6117c1576040517f08c379a00000000000000000000000000000000000000000000000000000000081526004016117b8906128c3565b60405180910390fd5b60006117cb611a6d565b905060008151116117eb5760405180602001604052806000815250611816565b806117f584611a84565b60405160200161180692919061265b565b6040516020818303038152906040525b915050919050565b6001816000016000828254019250508190555050565b61184e828260405180602001604052806000815250611c31565b5050565b600073ffffffffffffffffffffffffffffffffffffffff168373ffffffffffffffffffffffffffffffffffffffff16146118c1576040517f08c379a00000000000000000000000000000000000000000000000000000000081526004016118b890612923565b60405180910390fd5b6118cc838383611c8c565b505050565b505050565b60006118f78473ffffffffffffffffffffffffffffffffffffffff16611c91565b15611a60578373ffffffffffffffffffffffffffffffffffffffff1663150b7a026119206110d4565b8786866040518563ffffffff1660e01b8152600401611942949392919061269a565b602060405180830381600087803b15801561195c57600080fd5b505af192505050801561198d57506040513d601f19601f8201168201806040525081019061198a919061228e565b60015b611a10573d80600081146119bd576040519150601f19603f3d011682016040523d82523d6000602084013e6119c2565b606091505b50600081511415611a08576040517f08c379a00000000000000000000000000000000000000000000000000000000081526004016119ff90612723565b60405180910390fd5b805181602001fd5b63150b7a0260e01b7bffffffffffffffffffffffffffffffffffffffffffffffffffffffff1916817bffffffffffffffffffffffffffffffffffffffffffffffffffffffff191614915050611a65565b600190505b949350505050565b606060405180602001604052806000815250905090565b60606000821415611acc576040518060400160405280600181526020017f30000000000000000000000000000000000000000000000000000000000000008152509050611c2c565b600082905060005b60008214611afe578080611ae790612bfc565b915050600a82611af79190612a7e565b9150611ad4565b60008167ffffffffffffffff811115611b40577f4e487b7100000000000000000000000000000000000000000000000000000000600052604160045260246000fd5b6040519080825280601f01601f191660200182016040528015611b725781602001600182028036833780820191505090505b5090505b60008514611c2557600182611b8b9190612aaf565b9150600a85611b9a9190612c45565b6030611ba69190612a28565b60f81b818381518110611be2577f4e487b7100000000000000000000000000000000000000000000000000000000600052603260045260246000fd5b60200101907effffffffffffffffffffffffffffffffffffffffffffffffffffffffffffff1916908160001a905350600a85611c1e9190612a7e565b9450611b76565b8093505050505b919050565b611c3b8383611cb4565b611c4860008484846118d6565b611c87576040517f08c379a0000000000000000000000000000000000000000000000000000000008152600401611c7e90612723565b60405180910390fd5b505050565b505050565b6000808273ffffffffffffffffffffffffffffffffffffffff163b119050919050565b600073ffffffffffffffffffffffffffffffffffffffff168273ffffffffffffffffffffffffffffffffffffffff161415611d24576040517f08c379a0000000000000000000000000000000000000000000000000000000008152600401611d1b90612863565b60405180910390fd5b611d2d81611068565b15611d6d576040517f08c379a0000000000000000000000000000000000000000000000000000000008152600401611d6490612783565b60405180910390fd5b611d7960008383611852565b6001600360008473ffffffffffffffffffffffffffffffffffffffff1673ffffffffffffffffffffffffffffffffffffffff1681526020019081526020016000206000828254611dc99190612a28565b92505081905550816002600083815260200190815260200160002060006101000a81548173ffffffffffffffffffffffffffffffffffffffff021916908373ffffffffffffffffffffffffffffffffffffffff160217905550808273ffffffffffffffffffffffffffffffffffffffff16600073ffffffffffffffffffffffffffffffffffffffff167fddf252ad1be2c89b69c2b068fc378daa952ba7f163c4a11628f55a4df523b3ef60405160405180910390a4611e8a600083836118d1565b5050565b828054611e9a90612b99565b90600052602060002090601f016020900481019282611ebc5760008555611f03565b82601f10611ed557805160ff1916838001178555611f03565b82800160010185558215611f03579182015b82811115611f02578251825591602001919060010190611ee7565b5b509050611f109190611f14565b5090565b5b80821115611f2d576000816000905550600101611f15565b5090565b6000611f44611f3f84612983565b61295e565b905082815260208101848484011115611f5c57600080fd5b611f67848285612b57565b509392505050565b6000611f82611f7d846129b4565b61295e565b905082815260208101848484011115611f9a57600080fd5b611fa5848285612b57565b509392505050565b600081359050611fbc816131c4565b92915050565b600081359050611fd1816131db565b92915050565b600081359050611fe6816131f2565b92915050565b600081519050611ffb816131f2565b92915050565b600082601f83011261201257600080fd5b8135612022848260208601611f31565b91505092915050565b600082601f83011261203c57600080fd5b813561204c848260208601611f6f565b91505092915050565b60008135905061206481613209565b92915050565b60006020828403121561207c57600080fd5b600061208a84828501611fad565b91505092915050565b600080604083850312156120a657600080fd5b60006120b485828601611fad565b92505060206120c585828601611fad565b9150509250929050565b6000806000606084860312156120e457600080fd5b60006120f286828701611fad565b935050602061210386828701611fad565b925050604061211486828701612055565b9150509250925092565b6000806000806080858703121561213457600080fd5b600061214287828801611fad565b945050602061215387828801611fad565b935050604061216487828801612055565b925050606085013567ffffffffffffffff81111561218157600080fd5b61218d87828801612001565b91505092959194509250565b600080604083850312156121ac57600080fd5b60006121ba85828601611fad565b92505060206121cb85828601611fc2565b9150509250929050565b600080604083850312156121e857600080fd5b60006121f685828601611fad565b925050602083013567ffffffffffffffff81111561221357600080fd5b61221f8582860161202b565b9150509250929050565b6000806040838503121561223c57600080fd5b600061224a85828601611fad565b925050602061225b85828601612055565b9150509250929050565b60006020828403121561227757600080fd5b600061228584828501611fd7565b91505092915050565b6000602082840312156122a057600080fd5b60006122ae84828501611fec565b91505092915050565b6000602082840312156122c957600080fd5b600082013567ffffffffffffffff8111156122e357600080fd5b6122ef8482850161202b565b91505092915050565b60006020828403121561230a57600080fd5b600061231884828501612055565b91505092915050565b61232a81612ae3565b82525050565b61233981612af5565b82525050565b600061234a826129e5565b61235481856129fb565b9350612364818560208601612b66565b61236d81612d32565b840191505092915050565b6000612383826129f0565b61238d8185612a0c565b935061239d818560208601612b66565b6123a681612d32565b840191505092915050565b60006123bc826129f0565b6123c68185612a1d565b93506123d6818560208601612b66565b80840191505092915050565b60006123ef603283612a0c565b91506123fa82612d43565b604082019050919050565b6000612412602683612a0c565b915061241d82612d92565b604082019050919050565b6000612435602583612a0c565b915061244082612de1565b604082019050919050565b6000612458601c83612a0c565b915061246382612e30565b602082019050919050565b600061247b602483612a0c565b915061248682612e59565b604082019050919050565b600061249e601983612a0c565b91506124a982612ea8565b602082019050919050565b60006124c1602c83612a0c565b91506124cc82612ed1565b604082019050919050565b60006124e4603883612a0c565b91506124ef82612f20565b604082019050919050565b6000612507602a83612a0c565b915061251282612f6f565b604082019050919050565b600061252a602983612a0c565b915061253582612fbe565b604082019050919050565b600061254d602083612a0c565b91506125588261300d565b602082019050919050565b6000612570602c83612a0c565b915061257b82613036565b604082019050919050565b6000612593602083612a0c565b915061259e82613085565b602082019050919050565b60006125b6602f83612a0c565b91506125c1826130ae565b604082019050919050565b60006125d9602183612a0c565b91506125e4826130fd565b604082019050919050565b60006125fc603183612a0c565b91506126078261314c565b604082019050919050565b600061261f601e83612a0c565b915061262a8261319b565b602082019050919050565b61263e81612b4d565b82525050565b600061265082846123b1565b915081905092915050565b600061266782856123b1565b915061267382846123b1565b91508190509392505050565b60006020820190506126946000830184612321565b92915050565b60006080820190506126af6000830187612321565b6126bc6020830186612321565b6126c96040830185612635565b81810360608301526126db818461233f565b905095945050505050565b60006020820190506126fb6000830184612330565b92915050565b6000602082019050818103600083015261271b8184612378565b905092915050565b6000602082019050818103600083015261273c816123e2565b9050919050565b6000602082019050818103600083015261275c81612405565b9050919050565b6000602082019050818103600083015261277c81612428565b9050919050565b6000602082019050818103600083015261279c8161244b565b9050919050565b600060208201905081810360008301526127bc8161246e565b9050919050565b600060208201905081810360008301526127dc81612491565b9050919050565b600060208201905081810360008301526127fc816124b4565b9050919050565b6000602082019050818103600083015261281c816124d7565b9050919050565b6000602082019050818103600083015261283c816124fa565b9050919050565b6000602082019050818103600083015261285c8161251d565b9050919050565b6000602082019050818103600083015261287c81612540565b9050919050565b6000602082019050818103600083015261289c81612563565b9050919050565b600060208201905081810360008301526128bc81612586565b9050919050565b600060208201905081810360008301526128dc816125a9565b9050919050565b600060208201905081810360008301526128fc816125cc565b9050919050565b6000602082019050818103600083015261291c816125ef565b9050919050565b6000602082019050818103600083015261293c81612612565b9050919050565b60006020820190506129586000830184612635565b92915050565b6000612968612979565b90506129748282612bcb565b919050565b6000604051905090565b600067ffffffffffffffff82111561299e5761299d612d03565b5b6129a782612d32565b9050602081019050919050565b600067ffffffffffffffff8211156129cf576129ce612d03565b5b6129d882612d32565b9050602081019050919050565b600081519050919050565b600081519050919050565b600082825260208201905092915050565b600082825260208201905092915050565b600081905092915050565b6000612a3382612b4d565b9150612a3e83612b4d565b9250827fffffffffffffffffffffffffffffffffffffffffffffffffffffffffffffffff03821115612a7357612a72612c76565b5b828201905092915050565b6000612a8982612b4d565b9150612a9483612b4d565b925082612aa457612aa3612ca5565b5b828204905092915050565b6000612aba82612b4d565b9150612ac583612b4d565b925082821015612ad857612ad7612c76565b5b828203905092915050565b6000612aee82612b2d565b9050919050565b60008115159050919050565b60007fffffffff0000000000000000000000000000000000000000000000000000000082169050919050565b600073ffffffffffffffffffffffffffffffffffffffff82169050919050565b6000819050919050565b82818337600083830152505050565b60005b83811015612b84578082015181840152602081019050612b69565b83811115612b93576000848401525b50505050565b60006002820490506001821680612bb157607f821691505b60208210811415612bc557612bc4612cd4565b5b50919050565b612bd482612d32565b810181811067ffffffffffffffff82111715612bf357612bf2612d03565b5b80604052505050565b6000612c0782612b4d565b91507fffffffffffffffffffffffffffffffffffffffffffffffffffffffffffffffff821415612c3a57612c39612c76565b5b600182019050919050565b6000612c5082612b4d565b9150612c5b83612b4d565b925082612c6b57612c6a612ca5565b5b828206905092915050565b7f4e487b7100000000000000000000000000000000000000000000000000000000600052601160045260246000fd5b7f4e487b7100000000000000000000000000000000000000000000000000000000600052601260045260246000fd5b7f4e487b7100000000000000000000000000000000000000000000000000000000600052602260045260246000fd5b7f4e487b7100000000000000000000000000000000000000000000000000000000600052604160045260246000fd5b6000601f19601f8301169050919050565b7f4552433732313a207472616e7366657220746f206e6f6e20455243373231526560008201527f63656976657220696d706c656d656e7465720000000000000000000000000000602082015250565b7f4f776e61626c653a206e6577206f776e657220697320746865207a65726f206160008201527f6464726573730000000000000000000000000000000000000000000000000000602082015250565b7f4552433732313a207472616e736665722066726f6d20696e636f72726563742060008201527f6f776e6572000000000000000000000000000000000000000000000000000000602082015250565b7f4552433732313a20746f6b656e20616c7265616479206d696e74656400000000600082015250565b7f4552433732313a207472616e7366657220746f20746865207a65726f2061646460008201527f7265737300000000000000000000000000000000000000000000000000000000602082015250565b7f4552433732313a20617070726f766520746f2063616c6c657200000000000000600082015250565b7f4552433732313a206f70657261746f7220717565727920666f72206e6f6e657860008201527f697374656e7420746f6b656e0000000000000000000000000000000000000000602082015250565b7f4552433732313a20617070726f76652063616c6c6572206973206e6f74206f7760008201527f6e6572206e6f7220617070726f76656420666f7220616c6c0000000000000000602082015250565b7f4552433732313a2062616c616e636520717565727920666f7220746865207a6560008201527f726f206164647265737300000000000000000000000000000000000000000000602082015250565b7f4552433732313a206f776e657220717565727920666f72206e6f6e657869737460008201527f656e7420746f6b656e0000000000000000000000000000000000000000000000602082015250565b7f4552433732313a206d696e7420746f20746865207a65726f2061646472657373600082015250565b7f4552433732313a20617070726f76656420717565727920666f72206e6f6e657860008201527f697374656e7420746f6b656e0000000000000000000000000000000000000000602082015250565b7f4f776e61626c653a2063616c6c6572206973206e6f7420746865206f776e6572600082015250565b7f4552433732314d657461646174613a2055524920717565727920666f72206e6f60008201527f6e6578697374656e7420746f6b656e0000000000000000000000000000000000602082015250565b7f4552433732313a20617070726f76616c20746f2063757272656e74206f776e6560008201527f7200000000000000000000000000000000000000000000000000000000000000602082015250565b7f4552433732313a207472616e736665722063616c6c6572206973206e6f74206f60008201527f776e6572206e6f7220617070726f766564000000000000000000000000000000602082015250565b7f4572723a20746f6b656e207472616e7366657220697320424c4f434b45440000600082015250565b6131cd81612ae3565b81146131d857600080fd5b50565b6131e481612af5565b81146131ef57600080fd5b50565b6131fb81612b01565b811461320657600080fd5b50565b61321281612b4d565b811461321d57600080fd5b5056fea2646970667358221220ee766da31649b9cde379951d480a7dd992b418ea55e1b6a2ec061af1a43a7a0e64736f6c63430008040033",
  "linkReferences": {},
  "deployedLinkReferences": {}
}